{
  "contractName": "Crowdfunding",
  "abi": [
    {
      "inputs": [],
      "stateMutability": "nonpayable",
      "type": "constructor"
    },
    {
      "inputs": [],
      "name": "contribute",
      "outputs": [],
      "stateMutability": "payable",
      "type": "function",
      "payable": true
    },
    {
      "inputs": [],
      "name": "getOwner",
      "outputs": [
        {
          "internalType": "address",
          "name": "",
          "type": "address"
        }
      ],
      "stateMutability": "view",
      "type": "function",
      "constant": true
    },
    {
      "inputs": [],
      "name": "getGoal",
      "outputs": [
        {
          "internalType": "uint256",
          "name": "",
          "type": "uint256"
        }
      ],
      "stateMutability": "view",
      "type": "function",
      "constant": true
    },
    {
      "inputs": [],
      "name": "getCollected",
      "outputs": [
        {
          "internalType": "uint256",
          "name": "",
          "type": "uint256"
        }
      ],
      "stateMutability": "view",
      "type": "function",
      "constant": true
    },
    {
      "inputs": [],
      "name": "getIsFundable",
      "outputs": [
        {
          "internalType": "bool",
          "name": "",
          "type": "bool"
        }
      ],
      "stateMutability": "view",
      "type": "function",
      "constant": true
    }
  ],
  "bytecode": "0x608060405234801561001057600080fd5b50336000806101000a81548173ffffffffffffffffffffffffffffffffffffffff021916908373ffffffffffffffffffffffffffffffffffffffff160217905550633b9aca0060018190555060006002819055506001600360006101000a81548160ff0219169083151502179055506103328061008e6000396000f3fe60806040526004361061004a5760003560e01c80638470b23c1461004f578063893d20e81461007a578063b42d6fdb146100a5578063b97a7d24146100d0578063d7bb99ba146100fb575b600080fd5b34801561005b57600080fd5b50610064610105565b60405161007191906101ca565b60405180910390f35b34801561008657600080fd5b5061008f61010f565b60405161009c9190610226565b60405180910390f35b3480156100b157600080fd5b506100ba610138565b6040516100c7919061025c565b60405180910390f35b3480156100dc57600080fd5b506100e561014f565b6040516100f291906101ca565b60405180910390f35b610103610159565b005b6000600254905090565b60008060009054906101000a900473ffffffffffffffffffffffffffffffffffffffff16905090565b6000600360009054906101000a900460ff16905090565b6000600154905090565b600360009054906101000a900460ff16156101af57346002600082825461018091906102a6565b92505081905550600154600254106101ae576000600360006101000a81548160ff0219169083151502179055505b5b565b6000819050919050565b6101c4816101b1565b82525050565b60006020820190506101df60008301846101bb565b92915050565b600073ffffffffffffffffffffffffffffffffffffffff82169050919050565b6000610210826101e5565b9050919050565b61022081610205565b82525050565b600060208201905061023b6000830184610217565b92915050565b60008115159050919050565b61025681610241565b82525050565b6000602082019050610271600083018461024d565b92915050565b7f4e487b7100000000000000000000000000000000000000000000000000000000600052601160045260246000fd5b60006102b1826101b1565b91506102bc836101b1565b9250827fffffffffffffffffffffffffffffffffffffffffffffffffffffffffffffffff038211156102f1576102f0610277565b5b82820190509291505056fea2646970667358221220c75e14b4f70d384ee0a4365ea5b4a6bb3180dd4099633272fc19ca77251f2b7064736f6c634300080b0033",
  "immutableReferences": {},
  "source": "// SPDX-License-Identifier: MIT\npragma solidity >=0.7.0 <0.9.0;\n\ncontract Crowdfunding {\n  address payable owner;\n  uint goal;\n  uint collected;\n  bool isFundable;\n\n  constructor() {\n    owner = payable(msg.sender);\n    goal = 1000000000;\n    collected = 0;\n    isFundable = true;\n  }\n\n  function contribute() public payable {\n    if (isFundable) {\n      collected += msg.value;\n      if (collected >= goal) {\n        isFundable = false;\n      }\n    }\n  }\n\n  function getOwner() public view returns (address) {\n    return owner;\n  }\n\n  function getGoal() public view returns (uint) {\n    return goal;\n  }\n\n  function getCollected() public view returns (uint) {\n    return collected;\n  }\n\n  function getIsFundable() public view returns (bool) {\n    return isFundable;\n  }\n}",
  "sourcePath": "/home/yenniferh/Documentos/Solidity/crowdfunding/contracts/Crowdfunding.sol",
  "compiler": {
    "name": "solc",
    "version": "0.8.11+commit.d7f03943.Emscripten.clang"
  },
  "schemaVersion": "3.4.4",
  "updatedAt": "2022-02-14T01:37:54.904Z",
  "networkType": "ethereum",
  "devdoc": {
    "kind": "dev",
    "methods": {},
    "version": 1
  },
  "userdoc": {
    "kind": "user",
    "methods": {},
    "version": 1
  }
}